{
    "contractName": "Accums",
    "abi": [
        {
            "constant": true,
            "inputs": [
                {
                    "name": "",
                    "type": "bytes32"
                }
            ],
            "name": "uuidToMember",
            "outputs": [
                {
                    "name": "FirstName",
                    "type": "string"
                },
                {
                    "name": "LastName",
                    "type": "string"
                },
                {
                    "name": "DOB",
                    "type": "uint256"
                },
                {
                    "name": "PatientId",
                    "type": "uint256"
                },
                {
                    "name": "MemberId",
                    "type": "uint256"
                },
                {
                    "name": "StartDate",
                    "type": "uint256"
                },
                {
                    "name": "EndDate",
                    "type": "uint256"
                },
                {
                    "name": "Exist",
                    "type": "bool"
                },
                {
                    "name": "InNetwork",
                    "type": "uint64"
                },
                {
                    "name": "OutNetwork",
                    "type": "uint64"
                },
                {
                    "name": "OopIn",
                    "type": "uint64"
                },
                {
                    "name": "OopOut",
                    "type": "uint64"
                }
            ],
            "payable": false,
            "stateMutability": "view",
            "type": "function",
            "signature": "0x54fb24f9"
        },
        {
            "constant": true,
            "inputs": [
                {
                    "name": "",
                    "type": "uint256"
                }
            ],
            "name": "famidToFamily",
            "outputs": [
                {
                    "name": "MemberId",
                    "type": "uint256"
                },
                {
                    "name": "InNetwork",
                    "type": "uint64"
                },
                {
                    "name": "InNetworkMax",
                    "type": "uint64"
                },
                {
                    "name": "OutNetwork",
                    "type": "uint64"
                },
                {
                    "name": "OutNetworkMax",
                    "type": "uint64"
                },
                {
                    "name": "InNetOutOfPocket",
                    "type": "uint64"
                },
                {
                    "name": "InNetOutOfPocketMax",
                    "type": "uint64"
                },
                {
                    "name": "OutNetOutOfPocket",
                    "type": "uint64"
                },
                {
                    "name": "OutNetOutOfPocketMax",
                    "type": "uint64"
                }
            ],
            "payable": false,
            "stateMutability": "view",
            "type": "function",
            "signature": "0x8b957020"
        },
        {
            "anonymous": false,
            "inputs": [
                {
                    "indexed": false,
                    "name": "Fn",
                    "type": "string"
                },
                {
                    "indexed": false,
                    "name": "Ln",
                    "type": "string"
                },
                {
                    "indexed": false,
                    "name": "IN",
                    "type": "uint64"
                },
                {
                    "indexed": false,
                    "name": "OUT",
                    "type": "uint64"
                }
            ],
            "name": "FindMember",
            "type": "event",
            "signature": "0x3b625a7e2bb59dfb23b704a8dba9ba01185eddf58494be530f04f8ccb1d9f49d"
        },
        {
            "anonymous": false,
            "inputs": [
                {
                    "indexed": false,
                    "name": "MemberSha",
                    "type": "bytes32"
                },
                {
                    "indexed": false,
                    "name": "IN",
                    "type": "uint64"
                },
                {
                    "indexed": false,
                    "name": "OUT",
                    "type": "uint64"
                },
                {
                    "indexed": false,
                    "name": "InOop",
                    "type": "uint64"
                },
                {
                    "indexed": false,
                    "name": "OutOop",
                    "type": "uint64"
                }
            ],
            "name": "AddToAccum",
            "type": "event",
            "signature": "0xf4b7b827da084bfe2ae672a1016155fa98830024539e0c6929d879b90d88dc57"
        },
        {
            "constant": false,
            "inputs": [
                {
                    "name": "_memberSha",
                    "type": "bytes32"
                },
                {
                    "name": "_firstname",
                    "type": "string"
                },
                {
                    "name": "_lastname",
                    "type": "string"
                },
                {
                    "name": "_dob",
                    "type": "uint256"
                },
                {
                    "name": "_patientid",
                    "type": "uint256"
                },
                {
                    "name": "_memberid",
                    "type": "uint256"
                },
                {
                    "name": "_startdate",
                    "type": "uint256"
                },
                {
                    "name": "_enddate",
                    "type": "uint256"
                }
            ],
            "name": "setUuidNew",
            "outputs": [],
            "payable": false,
            "stateMutability": "nonpayable",
            "type": "function",
            "signature": "0x8c69f947"
        },
        {
            "constant": false,
            "inputs": [
                {
                    "name": "_memberSha",
                    "type": "bytes32"
                }
            ],
            "name": "findMember",
            "outputs": [
                {
                    "name": "FirstName",
                    "type": "string"
                },
                {
                    "name": "LastName",
                    "type": "string"
                },
                {
                    "name": "Exist",
                    "type": "bool"
                },
                {
                    "name": "InNetwork",
                    "type": "uint64"
                },
                {
                    "name": "OutNetwork",
                    "type": "uint64"
                },
                {
                    "name": "OopIn",
                    "type": "uint64"
                },
                {
                    "name": "OopOut",
                    "type": "uint64"
                }
            ],
            "payable": false,
            "stateMutability": "nonpayable",
            "type": "function",
            "signature": "0xcb1435c9"
        },
        {
            "constant": false,
            "inputs": [
                {
                    "name": "_memberSha",
                    "type": "bytes32"
                },
                {
                    "name": "_in",
                    "type": "uint64"
                },
                {
                    "name": "_out",
                    "type": "uint64"
                },
                {
                    "name": "_inoop",
                    "type": "uint64"
                },
                {
                    "name": "_outoop",
                    "type": "uint64"
                }
            ],
            "name": "add2Accum",
            "outputs": [],
            "payable": false,
            "stateMutability": "nonpayable",
            "type": "function",
            "signature": "0xc6e5350d"
        }
    ],
    "bytecode": "0x608060405234801561001057600080fd5b50611406806100206000396000f3fe60806040526004361061006d576000357c0100000000000000000000000000000000000000000000000000000000900463ffffffff16806354fb24f9146100725780638b9570201461022c5780638c69f94714610353578063c6e5350d146104ef578063cb1435c91461057a575b600080fd5b34801561007e57600080fd5b506100ab6004803603602081101561009557600080fd5b8101908080359060200190929190505050610711565b6040518080602001806020018d81526020018c81526020018b81526020018a8152602001898152602001881515151581526020018767ffffffffffffffff1667ffffffffffffffff1681526020018667ffffffffffffffff1667ffffffffffffffff1681526020018567ffffffffffffffff1667ffffffffffffffff1681526020018467ffffffffffffffff1667ffffffffffffffff16815260200183810383528f818151815260200191508051906020019080838360005b8381101561017f578082015181840152602081019050610164565b50505050905090810190601f1680156101ac5780820380516001836020036101000a031916815260200191505b5083810382528e818151815260200191508051906020019080838360005b838110156101e55780820151818401526020810190506101ca565b50505050905090810190601f1680156102125780820380516001836020036101000a031916815260200191505b509e50505050505050505050505050505060405180910390f35b34801561023857600080fd5b506102656004803603602081101561024f57600080fd5b81019080803590602001909291905050506108fe565b604051808a81526020018967ffffffffffffffff1667ffffffffffffffff1681526020018867ffffffffffffffff1667ffffffffffffffff1681526020018767ffffffffffffffff1667ffffffffffffffff1681526020018667ffffffffffffffff1667ffffffffffffffff1681526020018567ffffffffffffffff1667ffffffffffffffff1681526020018467ffffffffffffffff1667ffffffffffffffff1681526020018367ffffffffffffffff1667ffffffffffffffff1681526020018267ffffffffffffffff1667ffffffffffffffff168152602001995050505050505050505060405180910390f35b34801561035f57600080fd5b506104ed600480360361010081101561037757600080fd5b81019080803590602001909291908035906020019064010000000081111561039e57600080fd5b8201836020820111156103b057600080fd5b803590602001918460018302840111640100000000831117156103d257600080fd5b91908080601f016020809104026020016040519081016040528093929190818152602001838380828437600081840152601f19601f8201169050808301925050505050505091929192908035906020019064010000000081111561043557600080fd5b82018360208201111561044757600080fd5b8035906020019184600183028401116401000000008311171561046957600080fd5b91908080601f016020809104026020016040519081016040528093929190818152602001838380828437600081840152601f19601f82011690508083019250505050505050919291929080359060200190929190803590602001909291908035906020019092919080359060200190929190803590602001909291905050506109ec565b005b3480156104fb57600080fd5b50610578600480360360a081101561051257600080fd5b8101908080359060200190929190803567ffffffffffffffff169060200190929190803567ffffffffffffffff169060200190929190803567ffffffffffffffff169060200190929190803567ffffffffffffffff169060200190929190505050610be5565b005b34801561058657600080fd5b506105b36004803603602081101561059d57600080fd5b8101908080359060200190929190505050610e82565b604051808060200180602001881515151581526020018767ffffffffffffffff1667ffffffffffffffff1681526020018667ffffffffffffffff1667ffffffffffffffff1681526020018567ffffffffffffffff1667ffffffffffffffff1681526020018467ffffffffffffffff1667ffffffffffffffff16815260200183810383528a818151815260200191508051906020019080838360005b8381101561066957808201518184015260208101905061064e565b50505050905090810190601f1680156106965780820380516001836020036101000a031916815260200191505b50838103825289818151815260200191508051906020019080838360005b838110156106cf5780820151818401526020810190506106b4565b50505050905090810190601f1680156106fc5780820380516001836020036101000a031916815260200191505b50995050505050505050505060405180910390f35b6000602052806000526040600020600091509050806000018054600181600116156101000203166002900480601f0160208091040260200160405190810160405280929190818152602001828054600181600116156101000203166002900480156107bd5780601f10610792576101008083540402835291602001916107bd565b820191906000526020600020905b8154815290600101906020018083116107a057829003601f168201915b505050505090806001018054600181600116156101000203166002900480601f01602080910402602001604051908101604052809291908181526020018280546001816001161561010002031660029004801561085b5780601f106108305761010080835404028352916020019161085b565b820191906000526020600020905b81548152906001019060200180831161083e57829003601f168201915b5050505050908060020154908060030154908060040154908060050154908060060154908060070160009054906101000a900460ff16908060070160019054906101000a900467ffffffffffffffff16908060070160099054906101000a900467ffffffffffffffff16908060070160119054906101000a900467ffffffffffffffff16908060080160009054906101000a900467ffffffffffffffff1690508c565b60016020528060005260406000206000915090508060000154908060010160009054906101000a900467ffffffffffffffff16908060010160089054906101000a900467ffffffffffffffff16908060010160109054906101000a900467ffffffffffffffff16908060010160189054906101000a900467ffffffffffffffff16908060020160009054906101000a900467ffffffffffffffff16908060020160089054906101000a900467ffffffffffffffff16908060020160109054906101000a900467ffffffffffffffff16908060020160189054906101000a900467ffffffffffffffff16905089565b6109f46112a9565b61018060405190810160405280898152602001888152602001878152602001868152602001858152602001848152602001838152602001600115158152602001600067ffffffffffffffff168152602001600067ffffffffffffffff168152602001600067ffffffffffffffff168152602001600067ffffffffffffffff168152509050806000808b81526020019081526020016000206000820151816000019080519060200190610aa7929190611335565b506020820151816001019080519060200190610ac4929190611335565b5060408201518160020155606082015181600301556080820151816004015560a0820151816005015560c0820151816006015560e08201518160070160006101000a81548160ff0219169083151502179055506101008201518160070160016101000a81548167ffffffffffffffff021916908367ffffffffffffffff1602179055506101208201518160070160096101000a81548167ffffffffffffffff021916908367ffffffffffffffff1602179055506101408201518160070160116101000a81548167ffffffffffffffff021916908367ffffffffffffffff1602179055506101608201518160080160006101000a81548167ffffffffffffffff021916908367ffffffffffffffff160217905550905050505050505050505050565b60008060008781526020019081526020016000209050848160070160018282829054906101000a900467ffffffffffffffff160192506101000a81548167ffffffffffffffff021916908367ffffffffffffffff160217905550838160070160098282829054906101000a900467ffffffffffffffff160192506101000a81548167ffffffffffffffff021916908367ffffffffffffffff160217905550828160070160116101000a81548167ffffffffffffffff021916908367ffffffffffffffff160217905550818160080160006101000a81548167ffffffffffffffff021916908367ffffffffffffffff160217905550600060016000836004015481526020019081526020016000209050858160010160008282829054906101000a900467ffffffffffffffff160192506101000a81548167ffffffffffffffff021916908367ffffffffffffffff160217905550848160010160108282829054906101000a900467ffffffffffffffff160192506101000a81548167ffffffffffffffff021916908367ffffffffffffffff160217905550838160020160006101000a81548167ffffffffffffffff021916908367ffffffffffffffff160217905550828160020160106101000a81548167ffffffffffffffff021916908367ffffffffffffffff1602179055507ff4b7b827da084bfe2ae672a1016155fa98830024539e0c6929d879b90d88dc578787878787604051808681526020018567ffffffffffffffff1667ffffffffffffffff1681526020018467ffffffffffffffff1667ffffffffffffffff1681526020018367ffffffffffffffff1667ffffffffffffffff1681526020018267ffffffffffffffff1667ffffffffffffffff1681526020019550505050505060405180910390a150505050505050565b6060806000806000806000610e956112a9565b6000808a81526020019081526020016000206101806040519081016040529081600082018054600181600116156101000203166002900480601f016020809104026020016040519081016040528092919081815260200182805460018160011615610100020316600290048015610f4d5780601f10610f2257610100808354040283529160200191610f4d565b820191906000526020600020905b815481529060010190602001808311610f3057829003601f168201915b50505050508152602001600182018054600181600116156101000203166002900480601f016020809104026020016040519081016040528092919081815260200182805460018160011615610100020316600290048015610fef5780601f10610fc457610100808354040283529160200191610fef565b820191906000526020600020905b815481529060010190602001808311610fd257829003601f168201915b5050505050815260200160028201548152602001600382015481526020016004820154815260200160058201548152602001600682015481526020016007820160009054906101000a900460ff161515151581526020016007820160019054906101000a900467ffffffffffffffff1667ffffffffffffffff1667ffffffffffffffff1681526020016007820160099054906101000a900467ffffffffffffffff1667ffffffffffffffff1667ffffffffffffffff1681526020016007820160119054906101000a900467ffffffffffffffff1667ffffffffffffffff1667ffffffffffffffff1681526020016008820160009054906101000a900467ffffffffffffffff1667ffffffffffffffff1667ffffffffffffffff168152505090507f3b625a7e2bb59dfb23b704a8dba9ba01185eddf58494be530f04f8ccb1d9f49d816000015182602001518361010001518461012001516040518080602001806020018567ffffffffffffffff1667ffffffffffffffff1681526020018467ffffffffffffffff1667ffffffffffffffff168152602001838103835287818151815260200191508051906020019080838360005b838110156111be5780820151818401526020810190506111a3565b50505050905090810190601f1680156111eb5780820380516001836020036101000a031916815260200191505b50838103825286818151815260200191508051906020019080838360005b83811015611224578082015181840152602081019050611209565b50505050905090810190601f1680156112515780820380516001836020036101000a031916815260200191505b50965050505050505060405180910390a1806000015181602001518260e00151836101000151846101200151856101400151866101600151869650859550975097509750975097509750975050919395979092949650565b6101806040519081016040528060608152602001606081526020016000815260200160008152602001600081526020016000815260200160008152602001600015158152602001600067ffffffffffffffff168152602001600067ffffffffffffffff168152602001600067ffffffffffffffff168152602001600067ffffffffffffffff1681525090565b828054600181600116156101000203166002900490600052602060002090601f016020900481019282601f1061137657805160ff19168380011785556113a4565b828001600101855582156113a4579182015b828111156113a3578251825591602001919060010190611388565b5b5090506113b191906113b5565b5090565b6113d791905b808211156113d35760008160009055506001016113bb565b5090565b9056fea165627a7a7230582024e6f54c69d32cf44d41798f1e68010307f2f1790533103fce9134d63baf5cae0029",
    "source": "pragma solidity ^0.5.0;\n\n/*\n  @title\n  @author Nish\n  @notice\n  @dev\n*/\n\ncontract Accums\n{\n\n  struct Member\n  {\n    string FirstName;\n    string LastName;\n    uint256 DOB;\n    uint256 PatientId;\n    uint256 MemberId;\n    uint256 StartDate;\n    uint256 EndDate;\n    bool Exist;\n    uint64 InNetwork;\n    uint64 OutNetwork;\n    uint64 OopIn;\n    uint64 OopOut;\n    /// @dev Accumulators Set to 64 bit because numbers in\n    ///Accum hub are stored as 16 decimal numbers\n  }\n\n\n  struct Family\n  {\n    uint256 MemberId; ///@dev for linking Families\n    /// @dev Accumulators Set to 64 bit because numbers in\n    ///Accum hub are stored as 16 decimal numbers\n    uint64 InNetwork;\n    uint64 InNetworkMax;\n    uint64 OutNetwork;\n    uint64 OutNetworkMax;\n    uint64 InNetOutOfPocket;\n    uint64 InNetOutOfPocketMax;\n    uint64 OutNetOutOfPocket;\n    uint64 OutNetOutOfPocketMax;\n\n  }\n  ///@dev mapping as to link aliases to a single uuid\n  // mapping (uint256 => uint256) public shaToUuid;\n  ///@dev mapping to link a uuid to a member\n  mapping (bytes32 => Member) public uuidToMember;\n  ///@dev mapping to link a FamilyID to a family struct\n  mapping (uint256 => Family) public famidToFamily;\n  \n  event FindMember(string Fn, string Ln, uint64 IN, uint64 OUT);\n  event AddToAccum(bytes32 MemberSha, uint64 IN, uint64 OUT, uint64 InOop, uint64 OutOop);\n\n  ///@dev to get member from sha\n\n  // function setUuidNew(uint256 _memberSha, uint256 _uuid, uint256 _famId) public\n  // {\n  //   shaToUuid[_memberSha] = _uuid;\n  //   Member memory _newMember = Member(_uuid, _famId, true, 0, 500, 0, 600, 0, 5050, 0, 6060);\n  //   uuidToMember[_uuid] = _newMember;\n  // }\n\n  function setUuidNew(bytes32 _memberSha, string memory _firstname, string memory _lastname, uint256 _dob, uint256 _patientid, uint256 _memberid, uint256 _startdate, uint256 _enddate) public\n  {\n    // shaToUuid[_memberSha] = _patientid;\n    Member memory _newMember = Member(_firstname, _lastname, _dob, _patientid, _memberid, _startdate, _enddate, true, 0, 0, 0, 0);\n    uuidToMember[_memberSha] = _newMember;\n  }\n\n  // function attachAlias(uint256 _memberSha, uint256 _existingAlias) public\n  // {\n  //   shaToUuid[_memberSha] = shaToUuid[_existingAlias];\n  // }\n\n\n  function findMember(bytes32 _memberSha) public\n  returns(string memory FirstName, string memory LastName, bool Exist, uint64 InNetwork, uint64 OutNetwork, uint64 OopIn, uint64 OopOut)\n  {\n\n    Member memory _myMember = uuidToMember[_memberSha];\n    emit FindMember(_myMember.FirstName,_myMember.LastName, _myMember.InNetwork, _myMember.OutNetwork);\n    return (_myMember.FirstName, _myMember.LastName,_myMember.Exist, _myMember.InNetwork,\n     _myMember.OutNetwork, _myMember.OopIn, _myMember.OopOut);\n  }\n\n  function add2Accum(bytes32 _memberSha, uint64 _in, uint64 _out, uint64 _inoop, uint64 _outoop) public\n  {\n    Member storage _myMember = uuidToMember[_memberSha];\n    _myMember.InNetwork += _in;\n\n    _myMember.OutNetwork += _out;\n\n    _myMember.OopIn = _inoop;\n\n    _myMember.OopOut = _outoop;\n\n    Family storage _myFamily = famidToFamily[_myMember.MemberId];\n    _myFamily.InNetwork += _in;\n\n    _myFamily.OutNetwork += _out;\n\n    _myFamily.InNetOutOfPocket = _inoop;\n\n    _myFamily.OutNetOutOfPocket = _outoop;\n    \n    emit AddToAccum(_memberSha, _in, _out, _inoop, _outoop);\n\n  }\n\n\n}\n",
    "sourcePath": "/home/edith/development/kafka/Accum-final/blockchain/contracts/Accums.sol",
    "compiler": {
        "name": "solc",
        "version": "0.5.0+commit.1d4f565a.Emscripten.clang"
    },
    "schemaVersion": "3.0.2",
    "updatedAt": "2019-11-04T17:36:35.103Z",
    "devdoc": {
        "methods": {
            "setUuidNew(bytes32,string,string,uint256,uint256,uint256,uint256,uint256)": {
                "details": "to get member from sha"
            }
        }
    },
    "userdoc": {
        "methods": {}
    }
}